:100000000C941F010C948F030C9464030C9439031B
:100010000C940E030C94E3020C94B8020C948D0221
:100020000C9462020C9440010C9440010C94400129
:100030000C9440010C9440010C9440010C9440013C
:100040000C9440010C9440010C9440010C9440012C
:100050000C9440010C9440010C9440010C94180243
:100060000C9440010C9440010C9440010C9440010C
:100070000C9440010C9440010C9440010C944001FC
:100080000C9440010C9440010C9440010C944001EC
:100090000C9440010C9440010C9440010C944001DC
:1000A0000C9440010C9440010C9440010C944001CC
:1000B0000C9440010C9440010C9440010C944001BC
:1000C0000C9440010C9440010C9440010C944001AC
:1000D0000C9440010C9440010C9440010C9440019C
:1000E0000C9440010C9417020C94C0010C94520122
:1000F0000C94A9010C94AD010C948F010C94B601E1
:100100000C944A010C94C8010C9442010C948A018D
:100110000C94C4010C94CE010C94A1010C94DC014C
:100120000C94BA010C94B0010C94E0010C94D2012F
:100130000C94D6010C94A501000021002400270096
:100140002A002D00300033000101000004010701E6
:100150000A0100002200250028002B002E0031009B
:10016000340002010000050108010B010505050529
:10017000070508080808020202020A0A080804041F
:10018000040401010101010101010303030303034D
:100190000303040707070C0C0C0C0C0C0C0C0202DC
:1001A000020206060606060606060B0B0B0B0B0BD9
:1001B0000B0B010210202008081020401020408066
:1001C000020102010804020101020408102040801B
:1001D00080402010080402018004020180402010A9
:1001E00008040201080402010102040810204080F2
:1001F000010204081020408000000A0B02090C0DC7
:100200000E080703040100000000000000000000C9
:1002100000000000000000000000000000000000DE
:10022000000000001211100000000000000000009B
:100230000000000000000000000000000000112489
:100240001FBECFEFD1E2DEBFCDBF00E00CBF12E09A
:10025000A0E0B2E0E2E1F9E000E00BBF02C00790ED
:100260000D92A431B107D9F722E0A4E1B2E001C0B8
:100270001D92AD31B207E1F70E94BA030C948704D6
:100280000C9400009091120281E0911180E0809323
:10029000120208959091110281E0911180E0809303
:1002A000110208959091100281E0911180E08093F5
:1002B00010020895282F30E0F901E850FE4F949184
:1002C000F901EE54FE4F449124593E4FF901249117
:1002D000222309F435C0992311F191509231F8F499
:1002E000E92FF0E08827E858FE4F8F4F0C947F04E9
:1002F000A901AD018A01A101A5018F01B001B601DB
:10030000BA01C001C401C801CE01D2018F01D601DA
:10031000DC01E001809180008F7780938000E22FE4
:10032000F0E0EE0FFF1FEE5AFE4FA591B4918FB78C
:10033000F894EC91611148C040954E234C938FBFC7
:100340000895809180008F7DE8CF80918000877F25
:10035000E4CF84B58F7784BDE2CF84B58F7DFBCFAA
:100360008091B0008F778093B000D9CF8091B0009A
:100370008F7DF9CF809190008F7780939000CFCFC1
:10038000809190008F7DF9CF80919000877FF5CF8D
:100390008091A0008F778093A000C1CF8091A000B2
:1003A0008F7DF9CF8091A000877FF5CF80912001CC
:1003B0008F7780932001B3CF809120018F7DF9CF7B
:1003C00080912001877FF5CF4E2BB8CFCF93DF935D
:1003D00090E0FC01EE54FE4F249184599E4FFC01A5
:1003E00084918823D1F090E0880F991FFC01E85C8C
:1003F000FE4FA591B491FC01EE5AFE4FC591D491E8
:10040000623071F49FB7F8943C91822F80958323DA
:100410008C93E8812E2B28839FBFDF91CF91089585
:100420008FB7F894EC912E2B2C938FBFF6CF0895B5
:100430001F920F920FB60F9211242F933F938F9319
:100440009F93AF93BF938091190290911A02A0914C
:100450001B02B0911C023091180223E0230F2D37AC
:1004600058F50196A11DB11D209318028093190221
:1004700090931A02A0931B02B0931C028091140265
:1004800090911502A0911602B09117020196A11D3C
:10049000B11D8093140290931502A0931602B0939D
:1004A0001702BF91AF919F918F913F912F910F9024
:1004B0000FBE0F901F90189526E8230F0296A11DDE
:1004C000B11DD2CF1F920F920FB60F9211240BB60F
:1004D0000F922F933F934F935F936F937F938F93DD
:1004E0009F93AF93BF93EF93FF93E0910E02F09130
:1004F0000F021995FF91EF91BF91AF919F918F914D
:100500007F916F915F914F913F912F910F900BBE13
:100510000F900FBE0F901F9018951F920F920FB65D
:100520000F9211240BB60F922F933F934F935F932B
:100530006F937F938F939F93AF93BF93EF93FF93AB
:10054000E0910C02F0910D021995FF91EF91BF918E
:10055000AF919F918F917F916F915F914F913F915B
:100560002F910F900BBE0F900FBE0F901F901895FC
:100570001F920F920FB60F9211240BB60F922F936A
:100580003F934F935F936F937F938F939F93AF931B
:10059000BF93EF93FF93E0910202F091030219954C
:1005A000FF91EF91BF91AF919F918F917F916F914B
:1005B0005F914F913F912F910F900BBE0F900FBE07
:1005C0000F901F9018951F920F920FB60F92112443
:1005D0000BB60F922F933F934F935F936F937F933D
:1005E0008F939F93AF93BF93EF93FF93E09100029C
:1005F000F09101021995FF91EF91BF91AF919F91F9
:100600008F917F916F915F914F913F912F910F90BB
:100610000BBE0F900FBE0F901F9018951F920F9258
:100620000FB60F9211240BB60F922F933F934F9357
:100630005F936F937F938F939F93AF93BF93EF934A
:10064000FF93E0910A02F0910B021995FF91EF914F
:10065000BF91AF919F918F917F916F915F914F91DA
:100660003F912F910F900BBE0F900FBE0F901F90D8
:1006700018951F920F920FB60F9211240BB60F927E
:100680002F933F934F935F936F937F938F939F939A
:10069000AF93BF93EF93FF93E0910802F0910902AB
:1006A0001995FF91EF91BF91AF919F918F917F919C
:1006B0006F915F914F913F912F910F900BBE0F90D3
:1006C0000FBE0F901F9018951F920F920FB60F92AA
:1006D00011240BB60F922F933F934F935F936F9319
:1006E0007F938F939F93AF93BF93EF93FF93E0918B
:1006F0000602F09107021995FF91EF91BF91AF911A
:100700009F918F917F916F915F914F913F912F9129
:100710000F900BBE0F900FBE0F901F9018951F9259
:100720000F920FB60F9211240BB60F922F933F9397
:100730004F935F936F937F938F939F93AF93BF93E9
:10074000EF93FF93E0910402F09105021995FF9158
:10075000EF91BF91AF919F918F917F916F915F9139
:100760004F913F912F910F900BBE0F900FBE0F90A6
:100770001F901895789484B5826084BD84B581609B
:1007800084BD85B5826085BD85B5816085BD80915C
:100790006E00816080936E001092810080918100D4
:1007A00082608093810080918100816080938100CC
:1007B000809180008160809380008091B10084608E
:1007C0008093B1008091B00081608093B0008091EF
:1007D000910082608093910080919100816080936C
:1007E0009100809190008160809390008091A100A1
:1007F00082608093A1008091A10081608093A1001C
:100800008091A00081608093A0008091210182608E
:100810008093210180912101816080932101809149
:10082000200181608093200180917A008460809310
:100830007A0080917A00826080937A0080917A00B9
:10084000816080937A0080917A00806880937A003A
:100850001092C10061E088E00E94E60161E089E059
:100860000E94E60161E08AE00E94E60162E082E027
:100870000E94E60162E083E00E94E60162E085E119
:100880000E94E60182E491E09093010280930002CD
:1008900080916A008C7F816080936A00EC9A8AE480
:1008A00091E0909303028093020280916A00837F1B
:1008B000846080936A00ED9A82E591E0909305024E
:1008C00080930402809169008C7F8160809369002D
:1008D000E89AC0E0D0E06091120288E00E945A01DC
:1008E0006091110289E00E945A01609110028AE031
:1008F0000E945A01209779F30E940000ECCFEE0F7E
:10090000FF1F881F8BBF0790F691E02D1994F89474
:02091000FFCF17
:10091200170217021702170217021702170217020D
:0409220001010100CE
:00000001FF
